{
  "_format": "hh-sol-artifact-1",
  "contractName": "AtomicSwap",
  "sourceName": "contracts/AtomicSwap.sol",
  "abi": [
    {
      "inputs": [
        {
          "internalType": "string",
          "name": "input",
          "type": "string"
        }
      ],
      "name": "InvalidInput",
      "type": "error"
    },
    {
      "inputs": [],
      "name": "PendingSwapAlreadyExists",
      "type": "error"
    },
    {
      "inputs": [],
      "name": "SwapCannotBeRefundedUntilExpired",
      "type": "error"
    },
    {
      "inputs": [],
      "name": "SwapDoesntExist",
      "type": "error"
    },
    {
      "inputs": [],
      "name": "TransferFailed",
      "type": "error"
    },
    {
      "inputs": [
        {
          "internalType": "address",
          "name": "",
          "type": "address"
        }
      ],
      "name": "_swaps",
      "outputs": [
        {
          "internalType": "uint256",
          "name": "amount",
          "type": "uint256"
        },
        {
          "internalType": "string",
          "name": "dash",
          "type": "string"
        },
        {
          "internalType": "uint256",
          "name": "expiresAt",
          "type": "uint256"
        },
        {
          "internalType": "bytes32",
          "name": "secret",
          "type": "bytes32"
        }
      ],
      "stateMutability": "view",
      "type": "function"
    },
    {
      "inputs": [
        {
          "internalType": "string",
          "name": "dash",
          "type": "string"
        },
        {
          "internalType": "uint256",
          "name": "expiresAt",
          "type": "uint256"
        },
        {
          "internalType": "bytes32",
          "name": "secret",
          "type": "bytes32"
        }
      ],
      "name": "initializeETH",
      "outputs": [],
      "stateMutability": "payable",
      "type": "function"
    },
    {
      "inputs": [
        {
          "internalType": "address",
          "name": "initiator",
          "type": "address"
        },
        {
          "internalType": "string",
          "name": "secret",
          "type": "string"
        }
      ],
      "name": "redeem",
      "outputs": [],
      "stateMutability": "nonpayable",
      "type": "function"
    },
    {
      "inputs": [],
      "name": "refund",
      "outputs": [],
      "stateMutability": "nonpayable",
      "type": "function"
    }
  ],
  "bytecode": "0x608060405234801561001057600080fd5b50610ae3806100206000396000f3fe60806040526004361061003f5760003560e01c8063590e1ae314610044578063cf97759d1461005b578063e702729514610094578063f62e7851146100a7575b600080fd5b34801561005057600080fd5b506100596100c7565b005b34801561006757600080fd5b5061007b610076366004610756565b610291565b60405161008b94939291906107a8565b60405180910390f35b6100596100a2366004610894565b610342565b3480156100b357600080fd5b506100596100c23660046108e2565b610475565b336000818152602081815260408083208151608081019092528054825260018101805492939192918401916100fb90610930565b80601f016020809104026020016040519081016040528092919081815260200182805461012790610930565b80156101745780601f1061014957610100808354040283529160200191610174565b820191906000526020600020905b81548152906001019060200180831161015757829003601f168201915b505050918352505060028201546020808301919091526003909201546040918201526001600160a01b03851660009081529182905281208181559192506101be60018301826106e4565b60028201600090556003820160009055505080604001516000036101f557604051632e90f5df60e11b815260040160405180910390fd5b428160400151111561021a576040516338d904c360e01b815260040160405180910390fd5b80516040516000916001600160a01b038516918381818185875af1925050503d8060008114610265576040519150601f19603f3d011682016040523d82523d6000602084013e61026a565b606091505b505090508061028c576040516312171d8360e31b815260040160405180910390fd5b505050565b600060208190529081526040902080546001820180549192916102b390610930565b80601f01602080910402602001604051908101604052809291908181526020018280546102df90610930565b801561032c5780601f106103015761010080835404028352916020019161032c565b820191906000526020600020905b81548152906001019060200180831161030f57829003601f168201915b5050505050908060020154908060030154905084565b336000818152602081905260409020600201541561037357604051631d4dd1bf60e31b815260040160405180910390fd5b83516000036103b75760405163d647364f60e01b81526004016103ae906020808252600490820152630c8c2e6d60e31b604082015260600190565b60405180910390fd5b428310156104085760405163d647364f60e01b815260206004820152600960248201527f657870697265734174000000000000000000000000000000000000000000000060448201526064016103ae565b604080516080810182523481526020808201878152828401879052606083018690526001600160a01b038516600090815291829052929020815181559151909190600182019061045890826109b8565b506040820151600282015560609091015160039091015550505050565b6001600160a01b03821660009081526020818152604080832081516080810190925280548252600181018054339594840191906104b190610930565b80601f01602080910402602001604051908101604052809291908181526020018280546104dd90610930565b801561052a5780601f106104ff5761010080835404028352916020019161052a565b820191906000526020600020905b81548152906001019060200180831161050d57829003601f168201915b505050918352505060028201546020808301919091526003909201546040918201526001600160a01b038716600090815291829052812081815591925061057460018301826106e4565b60028201600090556003820160009055505080604001516000036105ab57604051632e90f5df60e11b815260040160405180910390fd5b6002836040516020016105be9190610a78565b60408051601f19818403018152908290526105d891610a78565b602060405180830381855afa1580156105f5573d6000803e3d6000fd5b5050506040513d601f19601f820116820180604052508101906106189190610a94565b81606001511461066b5760405163d647364f60e01b815260206004820152600660248201527f736563726574000000000000000000000000000000000000000000000000000060448201526064016103ae565b80516040516000916001600160a01b038516918381818185875af1925050503d80600081146106b6576040519150601f19603f3d011682016040523d82523d6000602084013e6106bb565b606091505b50509050806106dd576040516312171d8360e31b815260040160405180910390fd5b5050505050565b5080546106f090610930565b6000825580601f10610700575050565b601f01602090049060005260206000209081019061071e9190610721565b50565b5b808211156107365760008155600101610722565b5090565b80356001600160a01b038116811461075157600080fd5b919050565b60006020828403121561076857600080fd5b6107718261073a565b9392505050565b60005b8381101561079357818101518382015260200161077b565b838111156107a2576000848401525b50505050565b84815260806020820152600084518060808401526107cd8160a0850160208901610778565b604083019490945250606081019190915260a0601f909201601f1916010192915050565b634e487b7160e01b600052604160045260246000fd5b600082601f83011261081857600080fd5b813567ffffffffffffffff80821115610833576108336107f1565b604051601f8301601f19908116603f0116810190828211818310171561085b5761085b6107f1565b8160405283815286602085880101111561087457600080fd5b836020870160208301376000602085830101528094505050505092915050565b6000806000606084860312156108a957600080fd5b833567ffffffffffffffff8111156108c057600080fd5b6108cc86828701610807565b9660208601359650604090950135949350505050565b600080604083850312156108f557600080fd5b6108fe8361073a565b9150602083013567ffffffffffffffff81111561091a57600080fd5b61092685828601610807565b9150509250929050565b600181811c9082168061094457607f821691505b60208210810361096457634e487b7160e01b600052602260045260246000fd5b50919050565b601f82111561028c57600081815260208120601f850160051c810160208610156109915750805b601f850160051c820191505b818110156109b05782815560010161099d565b505050505050565b815167ffffffffffffffff8111156109d2576109d26107f1565b6109e6816109e08454610930565b8461096a565b602080601f831160018114610a1b5760008415610a035750858301515b600019600386901b1c1916600185901b1785556109b0565b600085815260208120601f198616915b82811015610a4a57888601518255948401946001909101908401610a2b565b5085821015610a685787850151600019600388901b60f8161c191681555b5050505050600190811b01905550565b60008251610a8a818460208701610778565b9190910192915050565b600060208284031215610aa657600080fd5b505191905056fea264697066735822122029c7f53ce4ebcbd74788094ac8ce68589dcf5095bc7e8521f29cf72873da601164736f6c634300080f0033",
  "linkReferences": {},
  "deployedLinkReferences": {}
}